:020000040800F2
:10000000E8040020A1010008EF2C00086329000883
:10001000ED2C00082D090008DD3700080000000065
:100020000000000000000000000000000130000897
:100030002F09000800000000712D0008033000089F
:10004000BB010008BB010008BB010008BB010008A0
:10005000BB010008BB010008BB010008BB01000890
:10006000BB010008BB010008BB010008BB01000880
:10007000BB010008BB010008BB010008BB01000870
:10008000BB010008BB010008BB010008BB01000860
:10009000BB010008BB010008BB010008BB01000850
:1000A000BB010008BB010008BB010008BB01000840
:1000B000BB0100080000000000000000BB010008B8
:1000C000BB0100080000000000000000BB010008A8
:1000D00000000000BD370008BB0100080000000060
:1000E000BB010008BB010008000000000000000088
:1000F0000000000000000000000000000000000000
:10010000000000000000000000000000BB0100082B
:100110000000000000000000BB010008BB01000857
:10012000BB010008BB010008BB010008BB010008BF
:10013000BB010008000000000000000000000000FB
:10014000BB010008BB010008BB010008BB0100089F
:10015000BB010008BB010008BB010008BB0100088F
:10016000BB010008BB010008BB0100080000000043
:10017000BB010008BB0100080000000000000000F7
:10018000BB010008BB010008BB010008DFF80CD070
:1001900000F002FB004800474D3B0008E804002047
:1001A0000648804706480047FEE7FEE7FEE7FEE711
:1001B000FEE7FEE7FEE7FEE7FEE7FEE78930000820
:1001C0008D0100082DE9F05F0546002092469B4610
:1001D00088460646814640241BE02846414647465D
:1001E000224600F0D3F953465A46C01A914110D323
:1001F00011461846224600F0BAF92D1A67EB01089D
:100200004F4622460120002100F0B1F917EB00090A
:100210004E41201EA4F10104DFDC484631462A4647
:10022000434600F000B830BCBDE8C09FD2B201E048
:1002300000F8012B491EFBD270470022F6E710B5EB
:1002400013460A4604461946FFF7F0FF204610BD44
:1002500070B5064603F0E8FA046805460A22002154
:10026000304600F0B5F92C6070BD2DE9FE4F804698
:1002700081EA0300C00F0C46009021F0004123F0FA
:100280000045B8EB0200A94105D240462146904600
:100290001C460B46024623F00040104347D0270D72
:1002A000C7F30A00C3F30A510290401A0190402894
:1002B0006BDAC3F3130040F4801B0098924620B120
:1002C0000023D2EB030A63EB0B0B01985946C0F1F4
:1002D0004002504600F04BF906460D46504659463E
:1002E000019A00F063F910EB08006141002487EAED
:1002F000115284EAE7731A4340D0009A62B3019A1C
:10030000012A4FEA075215DC001B61EB02014FF096
:10031000004202EA0752CDE90042001C41F580117B
:1003200032462B4600F0D2F903B000F045B8404603
:100330002146F9E7001B61EB0201001C41F5801327
:1003400000185B412018A2F5001747EB030140EAB3
:10035000D570B6196D4111E06D084FEA360645EAD1
:10036000C0754FEA0752001B61EB0201001C41F50A
:10037000801149084FEA30000019514132462B469E
:1003800003B000F01CB800F092B9009801224000C0
:100390000023D0EB020263EBE073009821464FEAA2
:1003A000E074B8EB000061EB0401E9E783F000437F
:1003B0005BE781F0004158E730BCBDE8C08F30BC3E
:1003C000BDE8C04FFFF7DFBF2DE9FE4F81EA030410
:1003D00004F0004421F0004100944FF0000B23F0A2
:1003E000004350EA01045ED052EA03045BD0C3F339
:1003F0000A54C1F30A552C44A4F2F3340194A0FB2F
:100400000254C1F3130141F48011C3F3130343F405
:10041000801301FB024400FB034E840A970A44EA5E
:10042000815447EA8357A4FB076802958D0A05FBB0
:1004300007854FEA932C04FB0C542705029D4FEAD5
:10044000065847EA1637B5EB08056EEB070C870E22
:10045000920E47EA811742EA8312A7FB0201B6EB2C
:100460000B0164EB00042B0D43EA0C335E1844EBE4
:100470001C50DA465146E7FB0201C5F313044FEA6C
:100480000B3343EA14534FEA0432019C43EA060358
:10049000A4F10C040294009CCDE900B400F016F91C
:1004A00003B000F003B800200146F9E730BCBDE816
:1004B000C08FC1F30A5210B5C1F3130140F2FF33EC
:1004C00041F480119A4201DA002010BD40F233431A
:1004D0009A42A2F2334203DC524200F057F810BDB8
:1004E000904010BD00F0004230F000400AD0C10D35
:1004F00001F56071C0F3160042EA0151C2084007DD
:100500001143704700200146704701F0004330B4AA
:1005100021F0004150EA010206D00A0DA2F56072F6
:10052000C1F31301002A02DC30BC00207047440FE5
:1005300044EAC104C100E01830BC00EBC25000F036
:100540007FB830B50B46014600202022012409E087
:1005500021FA02F59D4205D303FA02F5491B04FA7C
:1005600002F52844151EA2F10102F1DC30BD202A5B
:1005700004DB203A00FA02F1002070479140C2F1FA
:10058000200320FA03F3194390407047202A04DB2C
:10059000203A21FA02F00021704721FA02F3D040FC
:1005A000C2F120029140084319467047202A06DB19
:1005B000CB17203A41FA02F043EAE07306E041FA31
:1005C00002F3D040C2F1200291400843194670471F
:1005D0002DE9F04791460F4680460446002614F860
:1005E000015B2DB100F0EAF80068405DC007F6D16C
:1005F0002B2D02D02D2D18D0641E4A463946204698
:1006000000F0E0F827B13968A14201D1C7F80080B5
:1006100071054FF002040BD54042002803DD03F0C2
:1006200003F90460A007BDE8F08746F48066E4E7BC
:100630000028F8DA03F0F8F804606FF00040F2E701
:100640000029A8BF7047401C490008BF20F00100E6
:10065000704710B4B0FA80FC00FA0CF050EA0104C4
:1006600004BF10BC704749B1CCF1200421FA04F456
:1006700011FA0CF118BF012121430843A3EB0C012F
:10068000CB1D4FEA00614FEA102042BF002010BC92
:10069000704700EBC35010440029A4BF10BC704742
:1006A000401C490008BF20F0010010BC704710B585
:1006B000141E73F1000408DA401C41F10001921885
:1006C0005B411A4301D120F0010010BD2DE9F04D2E
:1006D00092469B4611B1B1FA81F202E0B0FA80F283
:1006E00020329046FFF743FF04460F4640EA0A00D7
:1006F00041EA0B0153465A46084313D0114653EAC8
:10070000010019D0C8F140025046FFF73FFF0546EF
:100710000E46504659464246FFF729FF084305D08A
:10072000012004E020463946BDE8F08D0020054355
:1007300046EAE0762C4337430A986305E40AA0EBC7
:1007400008000022FD0A44EA47540A3002D500207E
:100750000146E9E7010510196941DDE9084500197D
:100760006941BDE8F04DA2E730B5041E71F1000407
:1007700004DB4FF00044404264EB0101141E73F1AE
:10078000000405DB1C464FF00043524263EB0403B8
:10079000994208BF904230BD064C074D06E0E06824
:1007A00040F0010394E8070098471034AC42F6D3B8
:1007B000FFF7F0FC7C3D00089C3D000800487047B6
:1007C000783D00082DE9F05F824600780027154645
:1007D0008B460AF10104B946302801D09DB113E0DF
:1007E00014F8010B0127782803D0582801D045B10F
:1007F0000AE00DB1102D07D10027102514F8010BC8
:1008000002E0082500E00A250026B0460EE005FBC0
:10081000080005FB06F1012701EB10461FFA80F8DE
:10082000B6F5803F00D3B94614F8010B294600F015
:100830001BF80028EBDABBF1000F05D00FB1641EE6
:1008400000E05446CBF80040B9F1000F06D002F0AA
:10085000EBFF02210160C81E00F003B848EA064021
:10086000FAE730BCBDE8C09F3A2800D2303820F00B
:100870002002412A01D3A2F13700884201D34FF070
:10088000FF30704770B50446114886B0C16C41F026
:100890000201C164C06C0F4E00F00200059036F8F2
:1008A0001400009001200190002002900A4D0220C7
:1008B000039055F82400694600F07CF836F81410CF
:1008C00055F82400002200F0E9F906B070BD0000E0
:1008D00000100240F43C0008140000200449054ABE
:1008E00031F8101052F82000002200F0D7B90000B3
:1008F000F43C0008140000200449054A31F81010A7
:1009000052F82000012200F0C9B90000F43C0008B0
:10091000140000200349044A31F8101052F8200056
:1009200000F090B9F43C000814000020FEE7704786
:100930000020FFF7E1FF40F6B8340020FFF7EAFFA0
:10094000204600F028F8F8E710B590F825100024AC
:10095000022903D00421C16301241AE001680A6856
:1009600022F00E020A6001680A6822F001020A60A1
:1009700090F84410036C01F01C02012101FA02F20C
:100980005A6080F82510002180F82410816B01B195
:100990008847204610BD70B5044600F0B3F90546FF
:1009A000601C00D0641C00F0ADF9401BA042FAD3DB
:1009B00070BD00002DE9F84F00274FF0904BDFF895
:1009C00010A20D46044658450BD0544509D0814825
:1009D000844206D08048844203D0C3217FA003F024
:1009E000A7F828680104090C01D0000C03D0C42129
:1009F0007AA003F09DF8686808B301281FD0112879
:100A00001DD002281BD0122819D08349884216D045
:100A10008249884213D08249884210D08149884255
:100A20000DD0814988420AD08049884207D00328E6
:100A300005D00B2803D0C52168A003F079F8A86879
:100A4000002807D00128FCD00228FAD0C62163A0D4
:100A500003F06EF8B4E00120B840009006407DD06D
:100A60006868022801D0122821D15C450BD054457A
:100A700009D05848844206D05748844203D0D52133
:100A800056A003F055F828690F2803D9D62153A0A2
:100A900003F04EF8F80804EB8000016A7A07D20EE2
:100AA0000F23934099432B6993400B4303622268C1
:100AB0007900032000FA01F82879894600F0030044
:100AC00022EA080200FA09F0104320606868012851
:100AD00005D0022803D0112801D012281CD1E868C3
:100AE00048B1012807D0022805D0032803D0EA2105
:100AF0003AA003F01DF8A068E96820EA080001FAAE
:100B000009F10143A1606068009988432979C1F324
:100B10000011B94001436160E068A96820EA08005B
:100B200001FA09F10143E1606868C00047D5404817
:100B3000016E41F001010166006E27F0030100F033
:100B4000010000903B4801448B68B807020F0F205A
:100B5000904083435C4502D100200AE02FE05445D9
:100B600001D1012005E01B48844201D1022000E0B0
:100B700007209040184388602F4908686A68B0438E
:100B8000D20300D5304308602B49091D08686A6804
:100B9000B043920300D53043086027490831086804
:100BA0006A68B043D20200D53043086022490C3154
:100BB00008686A68B043920200D5304308607F1C21
:100BC0002E6836FA07F07FF446AF00F037B8000021
:100BD0000004004800080048001C00482E2E2F4446
:100BE0007269766572732F53544D33324C34787872
:100BF0005F48414C5F4472697665722F5372632F70
:100C000073746D33326C3478785F68616C5F6770D1
:100C1000696F2E6300000000000011100000211019
:100C200000003110000012100000221000003210ED
:100C300000100240000001400004014018BCBDE863
:100C4000E08F000070B50C00054604D14FF4EC7144
:100C500003A002F06DFF68696040686170BD00002C
:100C60002E2E2F447269766572732F53544D333292
:100C70004C3478785F48414C5F4472697665722FD6
:100C80005372632F73746D33326C3478785F68619C
:100C90006C5F6770696F2E630000000070B51546C9
:100CA0000C00064604D14FF4E17107A002F040FFAA
:100CB00045B1012D04D040F2C31103A002F038FF6A
:100CC000B46170BDB46270BD2E2E2F44726976651A
:100CD00072732F53544D33324C3478785F48414C03
:100CE0005F4472697665722F5372632F73746D332C
:100CF000326C3478785F68616C5F6770696F2E63FF
:100D00000000000001480068704700000400002057
:100D100070B50D46044600681D49884206D01D493D
:100D2000884203D074211CA002F002FF35B1B5F552
:100D3000805F03D0752118A002F0FAFE94F84100FC
:100D4000202823D194F8400001281FD0012084F8E6
:100D50004000242084F841002068016821F001014E
:100D600001602068016821F48051016020680168F9
:100D7000294301602068016841F0010101602020E1
:100D800084F84100002084F8400070BD022070BD4E
:100D900000540040005C00402E2E2F44726976659E
:100DA00072732F53544D33324C3478785F48414C32
:100DB0005F4472697665722F5372632F73746D335B
:100DC000326C3478785F68616C5F6932635F657834
:100DD0002E63000070B50D46044600681B4988422A
:100DE00006D01B49884203D0A2211AA002F0A0FE1F
:100DF0000F2D03D9A32117A002F09AFE94F8410009
:100E0000202821D194F8400001281DD0012084F829
:100E10004000242084F841002068016821F001018D
:100E200001602068016821F4706141EA05210160D8
:100E30002068016841F001010160202084F8410030
:100E4000002084F8400070BD022070BD00540040B6
:100E5000005C00402E2E2F447269766572732F530A
:100E6000544D33324C3478785F48414C5F4472695A
:100E70007665722F5372632F73746D33326C3478CE
:100E8000785F68616C5F6932635F65782E6300002C
:100E900070B504005ED058492068884207D0574991
:100EA000884204D04FF4F77155A002F041FEA068CB
:100EB000B0F5806F04D340F2EF1151A002F038FE7C
:100EC000E068012806D0022804D04FF4F8714CA045
:100ED00002F02EFE206938B1B0F5004F04D040F288
:100EE000F11147A002F024FE6069FF2804D94FF4F5
:100EF000F97143A002F01CFEA06990B1012810D046
:100F000002280ED003280CD004280AD0052808D0C7
:100F1000062806D0072804D040F2F31138A002F0CA
:100F200007FEE06938B1B0F5002F04D04FF4FA7134
:100F300033A002F0FDFD206A38B1B0F5003F04D0C7
:100F400040F2F5112EA002F0F3FD94F841000025C7
:100F500010B106E0012070BD84F84050204600F03A
:100F600099F9242084F841002068016821F00101EA
:100F700001606068216820F0706008612068816805
:100F800021F400418160E0680128A06807D040F4A6
:100F9000044021688860E068022803D006E040F43D
:100FA0000040F6E721684FF400604860206841681F
:100FB000214A114341602068C16821F40041C160A9
:100FC000D4E904010843A16940EA01202168C8600E
:100FD000D4E907010843216808602068016841F0EE
:100FE000010101606564202084F84100256384F8D4
:100FF0004250002070BD000000540040005C0040E2
:101000002E2E2F447269766572732F53544D3332EE
:101010004C3478785F48414C5F4472697665722F32
:101020005372632F73746D33326C3478785F6861F8
:101030006C5F6932632E6300008000022DE9F84F77
:10104000044690F84100DDF828A01F4690468B46E4
:1010500020287ED194F8400001287AD0012084F81D
:101060004000FFF74FFE0646012200901923D103EE
:10107000204601F035FDE0BB222084F8410010201D
:1010800084F8420000256564C4F8248067856563A0
:10109000618D3148FF274FF080784FF00079FF29AC
:1010A00003D927853A46009039E0618D218500906B
:1010B0003AE05946204601F0A9FC13E001F03CFD5E
:1010C000B8B92068406A616A0870606A401C606252
:1010D000208D401E80B22085618D491E6185618D05
:1010E00001B168B1608D3246002851462046E5D1F5
:1010F00000E002E001F062FDD0B1012000F030B864
:101100005346002280212046009601F0E9FC002889
:10111000F3D1608DFF2804D927853A4600954346D0
:10112000C7E7608D2085009594F828204B46C0E7DE
:1011300021682020C86121684A68084B1A404A602B
:1011400084F8410084F8425084F840500020D5E7EC
:10115000FFE70220D2E700000024008000E800FE44
:1011600018BCBDE8E08F00002DE9F84F044690F868
:101170004100DDF828A01F4690468B4620287ED1EE
:1011800094F8400001287AD0012084F84000FFF74D
:10119000B9FD0646012200901923D103204601F033
:1011A0009FFCE0BB212084F84100102084F842001D
:1011B00000256564C4F8248067856563618D3148C6
:1011C000FF274FF080784FF00079FF2903D927855A
:1011D0003A46009039E0618D218500903AE0594609
:1011E000204601F013FC13E001F00EFDB8B9606A6F
:1011F000216800788862606A401C6062608D401ED1
:101200006085208D401E80B22085618D01B168B15E
:10121000608D3246002851462046E5D100E002E0CC
:1012200001F0CCFCD0B1012000F030B853460022D0
:1012300080212046009601F053FC0028F3D1608DF8
:10124000FF2804D927853A4600954346C7E7608DB5
:101250002085009594F828204B46C0E7216820207F
:10126000C86121684A68084B1A404A6084F8410006
:1012700084F8425084F840500020D5E7FFE7022070
:10128000D2E700000020008000E800FE18BCBDE8A6
:10129000E08F000010B586B0044614216846FEF7C2
:1012A000CCFF13492068884220D1124CE06C40F0FA
:1012B0000100E064E06C694600F0010005904FF425
:1012C000C060009012200190012002900320039042
:1012D000042004904FF09040FFF76CFBA06D40F4A9
:1012E0000010A065A06D00F40010059006B010BDC0
:1012F000005400400010024002480168491C01608F
:10130000704700000400002010B50024032000F006
:10131000B9F8002000F008F808B1012401E000F05D
:101320001BF8204610BD000070B5054609484FF473
:101330007A7100240068B0FBF1F001F057F808B1B1
:10134000012404E000222946501E00F04BF82046FC
:1013500070BD000000000020094808B5016E41F092
:1013600001010166016E01F001010091816D41F002
:1013700080518165806D00F08050009008BD0000B4
:101380000010024010B5040003D5E32106A002F0CE
:10139000CFFB04F01F01012088406109890001F1A1
:1013A000E021C1F8000110BD2E2E2F447269766530
:1013B00072732F53544D33324C3478785F48414C1C
:1013C0005F4472697665722F5372632F73746D3345
:1013D000326C3478785F68616C5F636F72746578C3
:1013E0002E63000070B515460C460646102A03D33E
:1013F000CF2114A002F09CFB102C03D3D02111A00C
:1014000002F096FB1E480068C0F30223C3F10702F6
:101410002046042A00D90422191D072901D20023DD
:1014200000E0DB1E012404FA02F1491E014099404C
:101430009C40641E2C4021433046BDE8704001F0C2
:1014400057BC00002E2E2F447269766572732F539D
:10145000544D33324C3478785F48414C5F44726964
:101460007665722F5372632F73746D33326C3478D8
:10147000785F68616C5F636F727465782E630000DB
:101480000CED00E010B5044607280BD0062C09D05F
:10149000052C07D0042C05D0032C03D0B72108A0BD
:1014A00002F046FB154904F0070208684FF6FF03F7
:1014B000184040EA0220124A1043086010BD0000A4
:1014C0002E2E2F447269766572732F53544D33322A
:1014D0004C3478785F48414C5F4472697665722F6E
:1014E0005372632F73746D33326C3478785F686134
:1014F0006C5F636F727465782E6300000CED00E022
:101500000000FA0510B51B4CB0F5007F13D0B0F504
:10151000806F03D0B82118A002F00AFB2068C0F346
:101520004120022805D0206820F4C06040F480608B
:101530002060002010BD2068C0F341200128F8D0B1
:10154000206820F4C06040F4007020601948322107
:10155000006848431849B0FBF1F0401C00E0401E11
:101560006169490501D50028F9D160694005E0D5D8
:10157000032010BD007000402E2E2F447269766546
:1015800072732F53544D33324C3478785F48414C4A
:101590005F4472697665722F5372632F73746D3373
:1015A000326C3478785F68616C5F7077725F6578F1
:1015B0002E6300000000002040420F000248006837
:1015C00000F4C06070470000007000402DE9F84F43
:1015D0000446002700683E46C1074FF080694FF07F
:1015E000006AFE4D1BD1810719D4810617D441062C
:1015F00015D4C10513D4810511D441050FD40105BB
:1016000010D4810430D441042ED401042CD481039D
:101610002DD440037ED4DB21F1A002F089FA20888A
:10162000000521D5E06B4FF400084FF4400B38B1B2
:10163000404505D0584503D0E321E9A002F078FAEF
:10164000E06B50B1404503D0584538D001270AE03F
:10165000E86840F48030E86031E00021201D01F0AE
:1016600089FB07002BD03E462068800347D5206DBC
:101670004FF0000868B1B0F5807F0AD0B0F5007F68
:1016800007D0B0F5407F04D04FF4AB71D4A002F086
:101690004FFAA86DC00009D4A86D40F08050A8652D
:1016A000A86D4FF0010800F080500090DB48016801
:1016B00041F480710160FFF725FB834610E0D5F807
:1016C0008800E16B20F440000843C5F88800CBE7B0
:1016D000FFF718FBA0EB0B00022801D9032705E058
:1016E000CE480068C005F3D5002F7CD04FEA07062E
:1016F000B8F1000F03D0A86D20F08050A8652078C5
:10170000C00716D0206A60B101280AD0032808D08B
:10171000022800E00CE104D040F2AB11B0A002F0CE
:1017200007FAD5F88800216A20F003000843C5F8BD
:1017300088002078800714D5606A50B1042808D04A
:101740000C2806D0082804D040F2B511A4A002F05D
:10175000EFF9D5F88800616A20F00C000843C5F85D
:1017600088002078800617D5A06A68B1B0F5806F30
:101770000AD0B0F5406F07D0B0F5006F04D040F24A
:10178000E91197A002F0D4F9D5F88800A16A20F4F5
:1017900040600843C5F888002088800517D5606B35
:1017A00068B1B0F5802F0AD0B0F5002F07D0B0F5A2
:1017B000402F04D04FF4F97189A002F0B9F9D5F89F
:1017C0008800616B20F440200843C5F88800208819
:1017D000400519D5A06B78B1B0F5801F0CD0B0F5DD
:1017E000001F09D000E060E0B0F5401F04D040F2D7
:1017F000F9117BA002F09CF9D5F88800A16B20F4C8
:1018000040100843C5F888002078400614D5E06AE7
:1018100050B1B0F5805F07D0B0F5005F04D040F262
:1018200001216FA002F084F9D5F88800E16A20F464
:1018300040500843C5F888002088C00514D5206BA7
:1018400050B1B0F5803F07D0B0F5003F04D040F272
:10185000192163A002F06CF9D5F88800216B20F4FF
:1018600040300843C5F88800208880045DD5206C8E
:1018700058B1484509D0504507D0B0F1406F04D069
:1018800040F2322156A002F053F9D5F88800216CBD
:1018900020F040600843C5F88800206C50453CD1DA
:1018A000E86840F48010E8603FE0D5F8900010F45C
:1018B000407014D0216D814211D0D5F89000D5F838
:1018C000901020F4407041F48031C5F89010D5F8A4
:1018D000901021F48031C5F89010C5F89000C00731
:1018E00012D0FFF70FFA834641F2883708E000BFB5
:1018F000FFF708FAA0EB0B00B84201D90326F7E680
:10190000D5F890008007F3D5D5F89000216D20F42C
:1019100040700843C5F89000EAE6484505D101212A
:10192000201D01F027FA00B106462068400325D5A6
:10193000606C58B1484509D0504507D0B0F1406FB0
:1019400004D04FF41E7126A002F0F2F8D5F88800FA
:10195000616C20F040600843C5F88800606C504519
:1019600004D1E86840F48010E86007E0484505D1FC
:101970000121201D01F0FEF900B106462088400437
:101980001ED5A06C4FF0805748B1B84207D0B0F1D7
:10199000405F04D04FF4267111A002F0C9F8D5F8C9
:1019A0008800A16C20F040500843C5F88800A06C66
:1019B000B84205D10221201D01F0DCF900B1064634
:1019C0002088000433D5E06C38B1B0F1804F04D0EA
:1019D0004FF4317102A002F0ABF821E00010024098
:1019E0002E2E2F447269766572732F53544D333205
:1019F0004C3478785F48414C5F4472697665722F49
:101A00005372632F73746D33326C3478785F68610E
:101A10006C5F7263635F65782E6300000070004046
:101A200055F8880FE16C20F080400843286030466C
:101A300000F000B818BCBDE8E08F00002DE9F047C9
:101A40000E4605007ED02868401E0E2804D940F2BC
:101A500025416FA002F06CF866B1012E0AD0022E6B
:101A600008D0032E06D0042E04D040F2264168A0F0
:101A700002F05EF8744F386800F00700B04209D2F7
:101A8000386820F0070030433860386800F00700FD
:101A9000B04270D128786D4CC0073BD0686830B335
:101AA00001280ED002281FD003281AD040F23D4151
:101AB00057A002F03DF86868032812D0022813D01E
:101AC000A8B120684005002855DAA068696820F0B0
:101AD00003000843A060FFF715F9804641F28839FA
:101AE00011E020688001EEE720688003EBE72068C2
:101AF0008007E8E7FFF706F9A0EB0801494502D99E
:101B00000320BDE8F087A068696800F00C00B0EB26
:101B1000810FEFD1287880071ED5A868B0B1802842
:101B200014D0902812D0A02810D0B0280ED0C028F1
:101B30000CD0D0280AD0E02808D0F02806D040F2F7
:101B4000994100E017E032A001F0F2FFA068A96817
:101B500020F0F0000843A060386800F00700B042B1
:101B60000BD9386820F0070030433860386800F03F
:101B70000700B04201D00120C3E728784FF4806607
:101B800040074FF4A0674FF4C0684FF4E06914D5E4
:101B9000E86860B1B0420AD0B84208D0404506D0EB
:101BA000484504D04FF4976119A001F0C1FFA06827
:101BB000E96820F4E0600843A0602878000715D5A4
:101BC000286960B1B0420AD0B84208D0404506D07A
:101BD000484504D040F2BF410DA001F0A9FFA06824
:101BE000296920F4605040EAC100A06000F058F874
:101BF000A168174AC1F30311515C01F01F01C840ED
:101C000014490860BDE8F0470020FFF78DBB0000D5
:101C10002E2E2F447269766572732F53544D3332D2
:101C20004C3478785F48414C5F4472697665722F16
:101C30005372632F73746D33326C3478785F6861DC
:101C40006C5F7263632E630000200240001002404C
:101C5000AC3C00080000002005480649006889687F
:101C6000054AC1F30221515C01F01F01C8407047D1
:101C70000000002000100240EC3C00080548064926
:101C800000688968054AC1F3C221515C01F01F0157
:101C9000C84070470000002000100240EC3C0008E3
:101CA00070B52549002318468A68CC6812F00C02EA
:101CB00004F00306214C4FEA640509D00C2A05D034
:101CC000042A26D0082A00D1284670BD012E10D142
:101CD0000B681B0704D4D1F89430C3F3032302E04C
:101CE0000B68C3F30313164E56F823307AB10C2A4F
:101CF000EBD1C86800F00302C868C0F30210401CB2
:101D0000022A08D0032A09D0B3FBF0F008E01846F5
:101D100070BD204670BDB4FBF0F001E0B5FBF0F003
:101D2000CA68C968C2F306225043C1F34161491C25
:101D30004900B0FBF1F070BD001002400024F40037
:101D4000BC3C00082DE9F84304007DD0206880B138
:101D5000C1070ED181070CD481060AD4C10608D46C
:101D6000010706D4400704D440F2AD11F1A001F000
:101D7000DFFEFE4DA86800F00C06E86800F00307DF
:101D80002078C0067ED5A06930B1012804D04FF478
:101D9000DB71E8A001F0CCFEE069FF2804D940F235
:101DA000B711E4A001F0C4FE206AD0B1102818D009
:101DB000202816D0302814D0402812D0502810D017
:101DC00060280ED070280CD080280AD0902808D027
:101DD000A02806D0B02804D04FF4DC71D5A001F0C3
:101DE000A7FE76B10C2E01D1012F0AD0A0690028E0
:101DF00028687BD040F001002860FEF783FF804612
:101E00005EE02868800702D5A06900289DD0216A7D
:101E10002868000703D5286800F0F00004E0D5F832
:101E20009400F02202EA1010814218D9084601F00D
:101E3000A9F8002808D1286840F008002860286820
:101E4000216A20F0F00000E0F9E0084328606868AB
:101E5000E16920F47F4040EA0120686017E02868CB
:101E600040F0080028602868216A20F0F00008434C
:101E700028606868E16920F47F4040EA01206860DA
:101E8000206A00E043E001F07DF80028D2D1FFF79E
:101E900007FFA968B64AC1F30311515C01F01F01A5
:101EA000C840B44908600020FFF73EFA002873D10B
:101EB0002DE000BFFEF726FFA0EB080002286CD83B
:101EC00028688007F6D5286840F008002860286850
:101ED000216A20F0F000084328606868E16920F476
:101EE0007F4040EA0120686011E0FFE720F0010038
:101EF0002860FEF707FF804606E000BFFEF702FFFE
:101F0000A0EB08000228DAD828688007F6D42078E9
:101F1000C00750D060684FF480384FF4A02940B11A
:101F2000404506D0484504D04FF4087181A001F027
:101F3000FFFD082E0AD00C2E01D1032F06D06068B9
:101F400040450AD1286840F4803013E028688003B7
:101F500031D56068002872D02DE04845286803D14B
:101F600040F480202860EDE720F480302860286865
:101F700020F480202860606880B1FEF7C3FE8046B0
:101F800006E000BFFEF7BEFEA0EB0800642896D86E
:101F900028688003F6D50EE01AE218E2FEF7B2FEDA
:101FA000804605E0FEF7AEFEA0EB0800642886D868
:101FB00028688003F6D42078800749D5E06838B1D6
:101FC000B0F5807F04D040F253215AA001F0B0FD5B
:101FD00020691F2804D94FF4157156A001F0A8FDFF
:101FE000042E0ED00C2E01D1022F0AD0E06800285A
:101FF00028681DD040F480702860FEF783FE0746F5
:102000000BE0286840050BD5E0680028A3D007E066
:10201000FEF778FEC01B0228B9D828684005F7D51E
:102020006868217C20F0F85040EA016068600FE0A9
:1020300020F480702860FEF765FE074605E088E121
:10204000FEF760FEC01B0228A1D828684005F7D41F
:102050002078000731D56069E0B1012806D04FF43F
:10206000257134A001F064FD606998B1D5F8940041
:1020700040F00100C5F89400FEF744FE074604E076
:10208000FEF740FEC01B022891D8D5F894008007C7
:10209000F6D512E0D5F8940020F00100C5F89400C0
:1020A000FEF730FE074604E0FEF72CFEC01B0228B8
:1020B000B2D8D5F894008007F6D42078400772D5BE
:1020C000A068002740B1012806D0052804D040F2BE
:1020D000E72118A001F02CFDA86DC00008D4A86D60
:1020E00040F08050A865A86D012700F08050009056
:1020F00021480168C90513D40168814641F4807103
:102100000160FEF7FFFD804606E000BFFEF7FAFD26
:10211000A0EB0800022897D8D9F80000C005F5D533
:10212000A06801283AD00528D5F890003CD020F0CE
:10213000010023E02E2E2F447269766572732F53AF
:10214000544D33324C3478785F48414C5F44726967
:102150007665722F5372632F73746D33326C3478DB
:10216000785F68616C5F7263632E630000100240E9
:10217000AC3C00080000002000700040C5F8900052
:10218000D5F8900020F00400C5F89000A06841F256
:102190008839D0B1FEF7B6FD804611E0D5F8900041
:1021A00040F00100F0E724E040F00400C5F89000A2
:1021B000F4E700BFFEF7A6FDA0EB08014945AAD849
:1021C000D5F890008007F5D50EE0FEF79BFD804620
:1021D00006E000BFFEF796FDA0EB080149459AD83E
:1021E000D5F890008007F5D41FB1A86D20F080507D
:1021F000A8652078800632D5606AE8B1012807D04A
:102200004FF45371AFF2D40001F092FC606A98B1C0
:10221000D5F8980040F00100C5F89800FEF772FD6F
:10222000074604E0FEF76EFDC01B0228C7D8D5F8AC
:1022300098008007F6D512E0D5F8980020F001004C
:10224000C5F89800FEF75EFD074604E0FEF75AFD6C
:10225000C01B0228B3D8D5F898008007F6D4A06A2E
:10226000002875D001280AD0022808D040F2753124
:10227000AFF2401001F05CFCA06A0028F1D00C2EF7
:1022800067D0022812D0286820F080702860286863
:10229000000103D4E86820F00300E860E8685149D1
:1022A0000840E860FEF72EFD044693E0E06A58B16E
:1022B000012809D0022807D0032805D040F27F3139
:1022C000AFF2901001F034FC206B401E072805D9B6
:1022D0004FF46071AFF2A41001F02AFC606B083873
:1022E0004E2805D940F28131AFF2B81001F020FC40
:1022F000A06B801E1D2805D940F28331AFF2CC10AF
:1023000001F016FCE06B02280BD0042809D0062847
:1023100007D0082805D040F28531AFF2E81001F06F
:1023200007FC206C02280BD0042809D0062807D00F
:10233000082805D040F28631AFF2082001F0F8FB02
:10234000286820F080702860FEF7DCFC064606E076
:1023500043E044E0FEF7D6FC801B022837D828680B
:102360008001F7D4206B54F82C1F0001103808436B
:10237000218A1D4A490802EB4151A26841EA022123
:102380000843217D4FF07E42490802EB416108433A
:10239000217B40EAC160E860286840F080702860D6
:1023A000E86840F08070E860FEF7ACFC044604E0AA
:1023B000FEF7A8FC001B022809D828688001F7D581
:1023C0000BE000BFFEF79EFC001B022802D9032091
:1023D000BDE8F88328688001F4D40020F8E70120E4
:1023E000F6E70000FFFFEEFE0000E0FF10B5401E24
:1023F000B0F1807F01D3012010BD4FF0E024606177
:102400000F21601700F074FC0020A06107202061FC
:10241000002010BD704770472DE9F0410268044666
:10242000D0691168936810F00F0F4FF000055BD072
:1024300003F0010601F49077374369D0C70707D04E
:10244000CF0505D501271762626F42F0010262676E
:10245000820708D5DA0706D0276802223A62626F3F
:1024600042F004026267420708D5DA0706D0236803
:1024700004221A62626F42F00202626702070AD502
:1024800001F02002324306D0236808221A62626FEC
:1024900042F008026267626F002A32D0800605D5DA
:1024A000880603D5216E09B120468847606F000772
:1024B00003D420688068400625D5204600F03AFF06
:1024C00020688168490619D5816821F04001816042
:1024D000E06E98B120498163E06EFEF735FA00287E
:1024E0000FD0E06E816B06E0860611D58E060FD503
:1024F000216E1EE02046BDE8F04108472046FFF768
:102500008AFFBDE8F0812046FFF785FF6567F8E7A1
:10251000C60209D55B0207D54FF480101062204631
:10252000BDE8F041FFF776BF030605D50B0603D5DE
:10253000616E0029DED1E4E74006E2D54806E0D529
:102540001168204621F040011160202184F87110AB
:10255000656600F005FAD4E72133000810B50400E1
:102560000FD0A06925490028254A264B20680AD0AB
:10257000884213D0904211D098420FD04FF4A971E5
:1025800009E0012010BD884208D0904206D0984250
:1025900004D040F257111CA001F0CAFA94F871005F
:1025A00028B9002084F87000204600F04BF8242061
:1025B00084F871002068016821F001010160204663
:1025C00000F024FF0128DDD0606A10B1204600F041
:1025D0007DFD2068416821F4904141602068816858
:1025E00021F02A0181602068016841F00101016049
:1025F0002046BDE8104000F065BE000000380140F4
:1026000000440040008000402E2E2F447269766501
:1026100072732F53544D33324C3478785F48414CA9
:102620005F4472697665722F5372632F73746D33D2
:10263000326C3478785F68616C5F756172742E6398
:102640000000000010B586B0044614216846FDF76E
:10265000F4FD16492068884226D11548016E41F4E0
:1026600080410166016E01F480410591C16C41F029
:102670000201C164C06C694600F002000590C020F0
:102680000090022001900020029003200390072078
:1026900004900848FEF78EF9002211462520FEF727
:1026A000A1FE2520FEF76EFE06B010BD00380140E9
:1026B000001002400004004830B590F87230202B22
:1026C0004AD1B1B1AAB190F87030012B44D00123A6
:1026D00080F870304165A0F85820A0F85A200022F8
:1026E00002661D038168FF23A94207D1016911B168
:1026F0000CE0012030BD40F2FF110DE07F2419B144
:10270000B1F1805F05D009E0016901BBA0F85C3040
:1027100004E00169D9B13F21A0F85C104267222191
:1027200080F8721001688B6843F001038B60816848
:10273000A94201D1016969B10849016680F8702098
:102740000068016841F490710160002030BDA0F87C
:102750005C40E3E70249F0E7022030BDB1330008F6
:102760005533000870B50068374988B0884268D191
:10277000364C002001A9225C0A54401C0428FADBD4
:102780009DF8042032A1684601F03AF86D469DF8A4
:1027900005202FA1681C01F033F89DF806202CA11C
:1027A000A81C01F02DF89DF8072029A1E81C01F0D4
:1027B00027F8627926A102A801F022F8A27924A1C3
:1027C0000DF1090001F01CF8227921A103A801F004
:1027D00017F8E2791EA105A801F012F86846FDF786
:1027E00037FD044602A8FDF733FD064605A8FDF7B0
:1027F0002FFD0546214617A000F0F2FF31461AA032
:1028000000F0EEFF9DF80C101DA000F0E9FF294636
:1028100021A000F0E5FF0D4DAD1E2C809DF80C00B1
:102820004F2802D0462804D006E00020FEF764F8C6
:1028300002E00020FEF752F82A887321002001F000
:10284000C5F908B070BD0000003801400A00002042
:10285000256300006E756D626572206973205B25CB
:10286000645D0A0D000000006368616E6765207694
:10287000616C7565206973205B25645D0A0D00003D
:102880006F7269656E746174696F6E206973205B25
:1028900025635D0A0D00000043686F73656E204D6F
:1028A0006F746F72206973205B25645D0A0D0000F0
:1028B0002DE9F843044690F871001F4616460D4670
:1028C00020284BD1C5B1BEB194F87000012845D085
:1028D000012084F870004FF00008C4F874802120B3
:1028E00084F87100FEF70EFAA4F850608146A4F84F
:1028F00052604FF4805615E00120BDE8F883802136
:10290000204600F029FFD8B9A068B04201D1206963
:10291000C0B115F8010B21680885B4F85200401EBB
:10292000A4F85200B4F852004B464FF00002009752
:102930000028E4D14FF04001204600F00DFF30B1F7
:102940000320DAE735F8020BC0F30800E3E72020A4
:1029500084F8710084F870800020CEE70220CCE774
:102960007047FEE701688A69D243920701D40022CA
:102970008A6200688169C943C90703D0816941F04F
:1029800001018161704700002DE9F04104460068B3
:1029900090460E468069C043C00633D400252027E8
:1029A00020688069C043800615D5701CF8D0FEF7FA
:1029B000A9F9A0EB0800B04201D8002EF0D154F8DC
:1029C000440F40F0200044F804096770A57025709A
:1029D0000120BDE8F08121681020C8612068C7612E
:1029E0002046FFF7BFFF54F8440B4168064A1140E8
:1029F0004160206840F0040044F820096777A5771B
:102A00002577E5E70020E4E700E800FE2DE9F04146
:102A10000F46064600681E49069C1D4690468842A1
:102A200007D01C49884204D041F6AA011AA001F03F
:102A30007FF8B5F1807F08D0B5F1007F05D025B1D2
:102A400041F6AB0114A001F073F8214884420BD089
:102A50002048844208D02048844205D024B141F661
:102A6000AC010DA001F064F8306841684FF4806259
:102A70001A4B02EA54521A439143C7F3090343EA3B
:102A800008422A43224311434160BDE8F08100001F
:102A900000540040005C00402E2E2F447269766581
:102AA00072732F53544D33324C3478785F48414C15
:102AB0005F4472697665722F5372632F73746D333E
:102AC000326C3478785F68616C5F6932632E6300C2
:102AD000004000800024008000200080FF63FF038E
:102AE0002DE9F0411D4617460E460446DDF81880D4
:102AF00008E0681C06D0FEF705F9A0EB0800A84224
:102B00000BD855B12068806936EA000012D0002049
:102B1000B842EED00020BDE8F08154F8440F40F0F8
:102B2000200044F80409202060700020A07020706C
:102B30000120F0E70120EBE72DE9F0410026904667
:102B40000F460446202525E0424639462046FFF739
:102B50001BFF78BB20688069C043800613D42068BF
:102B60008169C943490701D4218DC1B9C56154F8B0
:102B7000440B4168104A1140416044F82069657770
:102B8000A677267716E0FEF7BDF8A0EB0800B8425E
:102B900008D83FB120688069C0434007D4D40020E2
:102BA000BDE8F08154F8440F40F0200044F80409D7
:102BB000657026700120F3E700E800FE70B5164648
:102BC0000D4604460DE0324629462046FFF7DCFE5E
:102BD00008B1012070BDFEF795F8801BA84207D808
:102BE00035B120688069C0438006ECD4002070BDF8
:102BF00054F8440F40F0200044F80409202060708D
:102C00000020A0702070E4E770B516460D4604461B
:102C10000FE0324629462046FFF7B6FE08B10120F4
:102C200070BD681C05D0FEF76DF8801BA84207D860
:102C300035B120688069C0438007EAD4002070BDA8
:102C400054F8440F40F0200044F80409202060703C
:102C50000020A0702070E2E7104810B50E49016016
:102C60000F49416000210122C0E902120161416166
:102C70008161C1610162FEF70BF950B9002107487B
:102C8000FEF746F828B900210448FEF7A3F800280B
:102C900001D0FDF74DFE10BD00540040240000207F
:102CA000EC9C9010104810B50E4901604FF4E131D2
:102CB0004160002181600C22C160C0E90412816181
:102CC000C16101624162FFF749FC08B1FDF730FEC6
:102CD000002211462520FEF785FBBDE81040252087
:102CE000FEF750BB0038014070000020FEE770473F
:102CF0000907090E002806DA00F00F0000F1E020B5
:102D000080F8141D704700F1E02080F8001470472F
:102D1000AFF300800021084600F018B83EB542F23B
:102D200010748DF80400012301AA80210648009444
:102D3000FEF71AFA012302AA802103480094FEF745
:102D40007DF99DF808003EBD240000201CB502233B
:102D50008DF8040042F210708DF80510009001AA61
:102D600080210248FEF700FA1CBD0000240000206C
:102D7000704700002DE9F0410446006888460026AF
:102D800050B1012808D0022806D0032804D040F60C
:102D9000443167A000F0CCFE6068401E072804D9CB
:102DA00040F6453162A000F0C3FEA06808384E2806
:102DB00004D940F646315EA000F0BAFEA069C10316
:102DC00003D4C10201D4C10102D56849084204D02C
:102DD00040F6473156A000F0ABFE654DE86880072D
:102DE0000ED0E86800F003012068814217D1B0B12D
:102DF000E8686168C0F30210401C88420FD121E0EE
:102E00002068012804D0022805D0032807D108E053
:102E10002968890701E029684905002907DB01269F
:102E200082E02968890302D429684903F5E7E96843
:102E300062686FF00F0321F0730103EB021211437C
:102E40000143E960286820F080602860FDF75AFFA0
:102E5000074604E0FDF756FFC01B02285BD8286830
:102E60000001F7D4B8F1000F26D0B8F1010F34D02B
:102E7000606902280AD0042808D0062806D008284D
:102E800004D04FF43D612AA000F052FE207D4FF0A7
:102E90007E41400801EB4060A16840EA01202969B9
:102EA000344A114008432861286840F08060286057
:102EB000FDF728FF074630E0E068801E1D2804D992
:102EC00040F69A311AA000F033FEA068217B000280
:102ED00040EAC1602969284AE3E7206902280AD04C
:102EE000042808D0062806D0082804D040F6BE31B1
:102EF0000FA000F01DFE208A2049400801EB405041
:102F0000A16840EA012029691D4ACAE7FDF7FAFED7
:102F1000C01B022801D9032606E028680001F5D568
:102F20002869A169084328613046BDE8F0810000A6
:102F30002E2E2F447269766572732F53544D33329F
:102F40004C3478785F48414C5F4472697665722FE3
:102F50005372632F73746D33326C3478785F6861A9
:102F60006C5F7263635F65782E630000FFFFEEFEA7
:102F700000100240FF80FFF9FF80FF070000E0FF24
:102F8000FF809FFFF8B51C4D06460024A86DC000C9
:102F900002D5FEF713FB0DE0A86D40F08050A86548
:102FA000A86D00F080500090FEF708FBA96D21F09D
:102FB0008051A965B0F5007F04D0802E07D94FF06D
:102FC00003040AE0802E08D9A02E01D804E001D124
:102FD000022402E0702E00D101240848016821F08B
:102FE000070121430160006800F00700A04201D002
:102FF0000120F8BD0020F8BD001002400020024072
:103000007047FEF779B910B5ACB044216846FDF7BA
:1030100014F9142126A8FDF710F9542111A8FDF781
:103020000CF90220C10103911021009004910A9033
:103030000121CDE90B010A210D910721CDE90E10E7
:1030400010906846FEF77EFED0B90F202690032030
:103050000024CDE927042994042126A82A94FEF708
:10306000EDFC68B94120119019941C9411A8FEF749
:10307000ADFA28B94FF40070FEF744FA002801D0E9
:10308000FDF756FC2CB010BD0D48016841F47001ED
:1030900001600C48016841F001010160002181607C
:1030A0000268094B1A4002608214C260026822F46E
:1030B0008022026081610249C00380390860704744
:1030C00088ED00E000100240FFFFF6EA70B504460C
:1030D000406AFF2804D940F6144169A000F028FD99
:1030E00094F82400C00710D0A06A38B1B0F5003FB2
:1030F00004D040F6194162A000F01AFD2068416832
:10310000A26A21F400311143416094F82400800741
:1031100010D5E06A38B1B0F5803F04D04FF4426179
:1031200057A000F005FD20684168E26A21F4803173
:103130001143416094F82400400710D5206B38B14A
:10314000B0F5802F04D040F627414DA000F0F0FCF0
:1031500020684168226B21F480211143416094F87A
:103160002400000710D5606B38B1B0F5004F04D0D3
:1031700040F62E4142A000F0DBFC20684168626B03
:1031800021F400411143416094F82400C00610D599
:10319000A06B38B1B0F5805F04D040F6354138A05F
:1031A00000F0C6FC20688168A26B21F480511143B5
:1031B000816094F82400800610D5E06B38B1B0F53A
:1031C000005F04D040F63C412DA000F0B1FC206827
:1031D0008168E26B21F400511143816094F824006E
:1031E000400637D535492068884207D0344988429F
:1031F00004D040F6434122A000F09AFC206C4FF42A
:10320000801530B1A84204D040F644411CA000F023
:103210008FFC20684168226C21F4801111434160C9
:10322000206CA84216D1606C68B1B0F5001F0AD0BE
:10323000B0F5800F07D0B0F5C00F04D040F649417B
:103240000FA000F075FC20684168626C21F4C00199
:103250001143416094F82400000610D5A06C38B1E9
:10326000B0F5002F04D040F6514105A000F060FCFD
:1032700020684168A26C21F400211143416070BDB7
:103280002E2E2F447269766572732F53544D33324C
:103290004C3478785F48414C5F4472697665722F90
:1032A0005372632F73746D33326C3478785F686156
:1032B0006C5F756172742E6300000000003801407D
:1032C00000440040F8B5002604464667FDF71AFDA5
:1032D0000546206800686FF07E47000708D52B463A
:1032E00000224FF400112046009700F035FA60B933
:1032F0002068006840070AD52B4600224FF4800161
:103300002046009700F028FA08B10320F8BD2020DD
:1033100084F8710084F8720084F870600020F8BDB1
:1033200010B5806A0021A0F85A10A0F85210FFF7DB
:1033300072F810BD01680A6822F490720A60016890
:103340008A6822F001028A60202180F87210002130
:103350000166704710B5B0F85C2090F872300168D3
:10336000222B04D0088B40F00800088310BD898C04
:10337000436D11401980416D891C4165B0F85A10A8
:10338000491E0904090CA0F85A10EFD101680A6817
:1033900022F490720A6001688A6822F001028A6051
:1033A000202180F8721000210166FFF7DBF910BDC3
:1033B00010B5B0F85C2090F872300168222B04D070
:1033C000088B40F00800088310BD898C1140426DC5
:1033D000531C43651170B0F85A10491E0904090CBA
:1033E000A0F85A10F0D101680A6822F490720A60BD
:1033F00001688A6822F001028A60202180F8721038
:1034000000210166FFF7AEF910BD00002DE9F0477D
:1034100004464068B74910250027884204D340F687
:10342000EC21B5A000F084FBA0684FF48056B0F109
:10343000805F07D030B1B04204D040F6ED21AEA09D
:1034400000F076FBDFF8EC8220684FF40051404535
:10345000E0684FF4006A06D100281AD0884218D0DC
:103460004FF42F6112E0B0420AD048B1B0F5405F8E
:1034700006D0884204D040F6F4219FA000F058FB0B
:10348000206A30B1504504D040F6F5219AA000F0F2
:103490004FFB20694FF4806648B1B04207D0B0F5C9
:1034A000C06F04D040F6F82193A000F041FB6069A2
:1034B00030F00C0100D120B940F6F9218EA000F0C7
:1034C00037FBA06968B1B0F5807F0AD0B0F5007F06
:1034D00007D0B0F5407F04D040F6FA2186A000F076
:1034E00027FBE0694FF4004930B1484504D040F66D
:1034F000FB2181A000F01CFB2169A068E269084360
:10350000616911432268084311688B4B19400143DC
:10351000116020684168E26821F440511143416024
:103520002168A069414501D0226A10438A6822F4CB
:10353000306202438A60814A2168814891420DD1FC
:10354000D0F8880010F0030006D0012828D0022807
:1035500024D0032827D125E0012524E0794A91428F
:103560000BD1D0F8880010F00C0015D0042817D02B
:10357000082813D00C2816D114E0414513D1D0F8F7
:10358000880010F4406007D0B04209D0504505D003
:10359000B0F5406F07D105E0002504E0022502E008
:1035A000042500E008256848002641453FD135B193
:1035B000022D0AD0042D05D0082D11D10EE0FEF702
:1035C0004BFB01E0FEF76CFB80B3626802EB42014B
:1035D000814205D8B0EB023F02D803E04846F4E749
:1035E000012772E0DFF864815DB1022D0CD0042D5B
:1035F00013D0082DF4D150082905401846F10001D8
:1036000005E0FEF729FB0AE050085149F5E70023E1
:10361000FCF7D8FDA0F5407153E0FEF741FB62686E
:10362000010E0302500818187141F0E74DE0E269FD
:103630004FF6EF784A452DD1092DD1D2DFE805F0BC
:1036400006092005230505052600C9E7FEF704FB4A
:1036500001E0FEF713FB4100D4F8040001EB500138
:10366000B1FBF0F080B2A0F110014145B8D84FF69F
:10367000F0710140C0F3420001432068C16024E0C2
:1036800034496068EAE7FEF70BFBE4E74FF480316A
:103690006068E3E7092DA3D2DFE805F006091C0501
:1036A0002205050525009BE7FEF7D6FA01E0FEF7A7
:1036B000E5FA0146606801EB500117E080B2A0F125
:1036C000100141458CD82168C86026663846666678
:1036D000BDE8F087616800EB5100B0FBF1F0EDE769
:1036E000FEF7DEFAE5E7606809EB5001B1FBF0F0A8
:1036F000E4E70000819698002E2E2F4472697665CB
:1037000072732F53544D33324C3478785F48414CA8
:103710005F4472697665722F5372632F73746D33D1
:10372000326C3478785F68616C5F756172742E6397
:103730000000000000800040F369FFEF0038014006
:1037400000100240004400400024F400FFFC0F0081
:10375000000024F40048E8012DE9F041984617469E
:103760000E460446069D1DE0681C1BD02DB1FDF7DA
:10377000C9FAA0EB0800A84214D92068016821F416
:10378000D07101602068816821F0010181602020F2
:1037900084F8710084F87200002084F8700003201F
:1037A000BDE8F0812068C06936EA000004D000203E
:1037B000B842D9D00020F3E70120F9E710B5054859
:1037C000FEF72AFEBDE81040082203490148FEF733
:1037D00073BF0000700000200A000020FEE7000018
:1037E0000FB4054B10B503A9044A029800F0BCF8C9
:1037F00010BC5DF814FB0000353B00081C000020E5
:103800000FB4084B10B504A902AA039800F0ACF855
:10381000044602A9002000F086F9204610BC5DF89D
:1038200014FB0000273B00080048704720000020E0
:103830002DE9F0412DED020B9FED3D0B2DED028B9F
:103840009FED3D8BDDE90254C4F30A50A0F2FF3630
:10385000142E37DA002E18DA53EC102B9DED020BE4
:1038600051EC100BFCF701FD53EC182BFCF77CFF1F
:1038700057D2002CA4BF0024254652DA24F0004081
:10388000284318BF2E4C4CD01AE02E4820FA06F7D9
:1038900004EA070028431FD053EC102B9DED020BC8
:1038A00051EC100BFCF7E1FC53EC182BFCF75CFF20
:1038B00037D2002C03DA4FF48010F0400444BC43AC
:1038C00000252EE0332E07DCA6F114004FF0FF3167
:1038D00021FA00F73D4206D19DED020BBDEC028BB3
:1038E00002B0BDE8F08153EC102B9DED020B51ECC2
:1038F000100BFCF75EFD53EC182BFCF735FF10D2D4
:10390000002C0DDA142E08BF641C09D0C6F1340057
:10391000012101FA00F02844A84238BF641C054682
:10392000BD43CDE902549DED020BD7E70000000036
:103930009C7500883CE4377E000000000000000019
:103940000000F0BFFFFF0F0002E008C8121F08C10F
:10395000002AFAD170477047002001E001C1121F10
:10396000002AFBD1704700002DE9FF4F8BB09A462B
:103970000F460546002606E025280BD052460D9935
:1039800090476D1C761C28780028F5D10FB0304682
:1039900000F0C6B80024A0460122604900E00443BC
:1039A00015F8013F203B02FA03F00842F7D12878CE
:1039B0002E2817D115F8010F44F004042A280ED040
:1039C0006FF02F022878A0F1300109290AD808EBFE
:1039D000880102EB410100EB01086D1CF2E757F88A
:1039E000048B6D1C287869283ED006DC0028CDD0D9
:1039F00063280BD0642804D136E0732810D07528D2
:103A00004BD052460D999047761C85E017F8040B71
:103A10008DF8000000208DF80100E946012003E048
:103A200057F8049B4FF0FF3061074FF0000401D4BA
:103A30000AE0641C44450DDA8442FADB19F80410EC
:103A40000029F6D106E0641C8442FCDB19F804105E
:103A50000029F8D1264404E019F8010B52460D99CB
:103A60009047641EF8D257E001CF4FF00A0B0028B0
:103A700002DA40422D2102E0210504D52B218DF8E8
:103A80002410012103E0E10705D02021F7E70DF123
:103A9000200908910CE00021F9E701CF4FF00A0B53
:103AA000F9E75946FCF74DFD01F1300209F8012D07
:103AB0000028F6D1ADEB090000F1200B600701D41E
:103AC0004FF00108D84502DDA8EB0B0000E0002014
:103AD0008046002406E009A85246005D0D999047F3
:103AE000641C761C08988442F5DB04E030205246C2
:103AF0000D999047761CB8F10001A8F10108F5DC9A
:103B000005E019F8010B52460D999047761CBBF160
:103B10000001ABF1010BF4DC6D1C34E70928010056
:103B200030BCBDE8C08F0A68531C0B601070704732
:103B30007047000013B54FF6FF7301226946024833
:103B4000FEF7B6FE00981CBD7000002008B5FDF71A
:103B5000DBFB0020FCF796FEFFF755FA1748C16C17
:103B600041F00101C164C16C01F001010091C16C1F
:103B700041F00201C164C06C00F002000090FFF748
:103B80006BF8FFF78FF80E4801680A6842F02002D0
:103B90000A600068016841F040010160082209499B
:103BA0000748FEF789FDFFF7B3F89FED070A00F01D
:103BB0002FF80449AA20891E0880FEE70010024061
:103BC000700000200A0000200000484270B5044642
:103BD00006200E4600EB84001546C9B2C0B2FFF7BE
:103BE000B5F8072000EB8400310AC0B2FFF7AEF849
:103BF000082000EB8400E9B2C0B2FFF7A7F8290A59
:103C0000092000EB8400BDE87040C0B2FFF79EB809
:103C100070B510EE100AFCF765FC9FED1F1B53EC0E
:103C2000112BFCF7D1FBFCF770FC00EE100A9FEDA6
:103C30001C1AC1EE000AB7EE000A30EEC00A10EE00
:103C4000100AFCF74FFC9FED171B53EC112BFCF7F0
:103C50000CFB41EC100BFFF7EBFD51EC100BFCF7EC
:103C600028FC05460020FFF759F8044600F07F00C5
:103C700040F010010020FFF769F8E9B2FE20FFF7DD
:103C800065F821460020FFF761F844F0A101BDE886
:103C900070400020FFF75AB8713D0AD7A370ED3F7E
:103CA00020BCBE45000000000000E03F0000000016
:103CB000000000000102030406070809A0860100B5
:103CC000400D0300801A060000350C0040420F0032
:103CD00080841E0000093D0000127A000024F400D8
:103CE00000366E010048E801006CDC0200000000B4
:103CF0000102030408000040404040404040404072
:103D000041414141414040404040404040404040AE
:103D100040404040404040050202020202020202CE
:103D20000202020202020220202020202020202065
:103D300020020202020202029090909090901010D5
:103D40001010101010101010101010101010101073
:103D500010100202020202028888888888880808F7
:103D600008080808080808080808080808080808D3
:103D70000808020202024000F73C00089C3D0008CF
:103D8000000000202400000048390008C03D000861
:103D900024000020C40400005839000800093D0038
:103DA0000000000000000000000000000000000013
:103DB00000040048E80300000000000000000000CC
:040000050800018D61
:00000001FF
