:020000040800F2
:10000000E8040020A1010008A32000080B2000083C
:10001000A120000841030008312B00080000000067
:100020000000000000000000000000005523000850
:100030004303000800000000C52000085723000803
:10004000BB010008BB010008BB010008BB010008A0
:10005000BB010008BB010008BB010008BB01000890
:10006000BB010008BB010008BB010008BB01000880
:10007000BB010008BB010008BB010008BB01000870
:10008000BB010008BB010008BB010008BB01000860
:10009000BB010008BB010008BB010008BB01000850
:1000A000BB010008BB010008BB010008BB01000840
:1000B000BB0100080000000000000000BB010008B8
:1000C000BB0100080000000000000000BB010008A8
:1000D00000000000112B0008BB0100080000000018
:1000E000BB010008BB010008000000000000000088
:1000F0000000000000000000000000000000000000
:10010000000000000000000000000000BB0100082B
:100110000000000000000000BB010008BB01000857
:10012000BB010008BB010008BB010008BB010008BF
:10013000BB010008000000000000000000000000FB
:10014000BB010008BB010008BB010008BB0100089F
:10015000BB010008BB010008BB010008BB0100088F
:10016000BB010008BB010008BB0100080000000043
:10017000BB010008BB0100080000000000000000F7
:10018000BB010008BB010008BB010008DFF80CD070
:1001900000F07EF800480047A12B0008E80400208A
:1001A0000648804706480047FEE7FEE7FEE7FEE711
:1001B000FEE7FEE7FEE7FEE7FEE7FEE7DD230008D9
:1001C0008D0100082DE9F05F0546002092469B4610
:1001D00088460646814640241BE02846414647465D
:1001E000224600F044F853465A46C01A914110D3B3
:1001F00011461846224600F02BF82D1A67EB01082D
:100200004F4622460120002100F022F817EB00099A
:100210004E41201EA4F10104DFDC484631462A4647
:10022000434600F000B830BCBDE8C09FD2B201E048
:1002300000F8012B491EFBD270470022F6E710B5EB
:1002400013460A4604461946FFF7F0FF204610BD44
:10025000202A04DB203A00FA02F100207047914086
:10026000C2F1200320FA03F3194390407047202A7B
:1002700004DB203A21FA02F00021704721FA02F350
:10028000D040C2F120029140084319467047000057
:10029000064C074D06E0E06840F0010394E80700D3
:1002A00098471034AC42F6D3FFF774FF542C000883
:1002B000742C000870B50446114886B0C16C41F03A
:1002C0000201C164C06C0F4E00F00200059036F8C8
:1002D0001400009001200190002002900A4D02209D
:1002E000039055F82400694600F06EF836F81410B3
:1002F00055F82400002200F0DBF906B070BD0000C4
:1003000000100240502C0008140000200449054A47
:1003100031F8101052F82000012200F0C9B9000095
:10032000502C0008140000200349044A31F8101032
:1003300052F8200000F090B9502C00081400002062
:10034000FEE770470020FFF7E1FF40F6B8340020D9
:10035000FFF7EAFF204600F028F8F8E710B590F81C
:1003600025100024022903D00421C16301241AE0CE
:1003700001680A6822F00E020A6001680A6822F029
:1003800001020A6090F84410036C01F01C02012184
:1003900001FA02F25A6080F82510002180F824103A
:1003A000816B01B18847204610BD70B5044600F04E
:1003B000B3F90546601C00D0641C00F0ADF9401B89
:1003C000A042FAD370BD00002DE9F84F00274FF08E
:1003D000904BDFF810A20D46044658450BD054450B
:1003E00009D08148844206D08048844203D0C3218A
:1003F0007FA002F0C7FB28680104090C01D0000CA3
:1004000003D0C4217AA002F0BDFB686808B30128BC
:100410001FD011281DD002281BD0122819D08349C3
:10042000884216D08249884213D08249884210D02F
:10043000814988420DD0814988420AD0804988424A
:1004400007D0032805D00B2803D0C52168A002F0EF
:1004500099FBA868002807D00128FCD00228FAD010
:10046000C62163A002F08EFBB4E00120B8400090EA
:1004700006407DD06868022801D0122821D15C4551
:100480000BD0544509D05848844206D0574884427E
:1004900003D0D52156A002F075FB28690F2803D997
:1004A000D62153A002F06EFBF80804EB8000016A2D
:1004B0007A07D20E0F23934099432B6993400B4345
:1004C000036222687900032000FA01F8287989463E
:1004D00000F0030022EA080200FA09F0104320604D
:1004E0006868012805D0022803D0112801D01228FD
:1004F0001CD1E86848B1012807D0022805D003289C
:1005000003D0EA213AA002F03DFBA068E96820EAA6
:10051000080001FA09F10143A1606068009988436D
:100520002979C1F30011B94001436160E068A9680D
:1005300020EA080001FA09F10143E1606868C0009F
:1005400047D54048016E41F001010166006E27F079
:10055000030100F0010000903B4801448B68B8079C
:10056000020F0F20904083435C4502D100200AE037
:100570002FE0544501D1012005E01B48844201D100
:10058000022000E007209040184388602F49086847
:100590006A68B043D20300D5304308602B49091D77
:1005A00008686A68B043920300D530430860274961
:1005B000083108686A68B043D20200D53043086049
:1005C00022490C3108686A68B043920200D5304372
:1005D00008607F1C2E6836FA07F07FF446AF00F003
:1005E00037B800000004004800080048001C00481C
:1005F0002E2E2F447269766572732F53544D333209
:100600004C3478785F48414C5F4472697665722F4C
:100610005372632F73746D33326C3478785F686112
:100620006C5F6770696F2E6300000000000011109E
:1006300000002110000031100000121000002210F4
:100640000000321000100240000001400004014090
:1006500018BCBDE8E08F000070B50C00054604D161
:100660004FF4EC7103A002F08DFA68696040686194
:1006700070BD00002E2E2F447269766572732F5361
:10068000544D33324C3478785F48414C5F44726942
:100690007665722F5372632F73746D33326C3478B6
:1006A000785F68616C5F6770696F2E63000000009F
:1006B00070B515460C00064604D14FF4E17107A051
:1006C00002F060FA45B1012D04D040F2C31103A03D
:1006D00002F058FAB46170BDB46270BD2E2E2F4482
:1006E0007269766572732F53544D33324C34787877
:1006F0005F48414C5F4472697665722F5372632F75
:1007000073746D33326C3478785F68616C5F6770D6
:10071000696F2E6300000000014800687047000008
:100720000400002070B50D46044600681D4988424B
:1007300006D01D49884203D074211CA002F022FA81
:1007400035B1B5F5805F03D0752118A002F01AFA13
:1007500094F84100202823D194F8400001281FD0AC
:10076000012084F84000242084F8410020680168BA
:1007700021F0010101602068016821F480510160CD
:1007800020680168294301602068016841F0010187
:100790000160202084F84100002084F8400070BDF2
:1007A000022070BD00540040005C00402E2E2F44FB
:1007B0007269766572732F53544D33324C347878A6
:1007C0005F48414C5F4472697665722F5372632FA4
:1007D00073746D33326C3478785F68616C5F693242
:1007E000635F65782E63000070B50D4604460068AF
:1007F0001B49884206D01B49884203D0A2211AA077
:1008000002F0C0F90F2D03D9A32117A002F0BAF905
:1008100094F84100202821D194F8400001281DD0EF
:10082000012084F84000242084F8410020680168F9
:1008300021F0010101602068016821F4706141EA42
:10084000052101602068016841F00101016020205C
:1008500084F84100002084F8400070BD022070BD83
:1008600000540040005C00402E2E2F4472697665D3
:1008700072732F53544D33324C3478785F48414C67
:100880005F4472697665722F5372632F73746D3390
:10089000326C3478785F68616C5F6932635F657869
:1008A0002E63000070B504005ED05849206888426D
:1008B00007D05749884204D04FF4F77155A002F091
:1008C00061F9A068B0F5806F04D340F2EF1151A038
:1008D00002F058F9E068012806D0022804D04FF44D
:1008E000F8714CA002F04EF9206938B1B0F5004F14
:1008F00004D040F2F11147A002F044F96069FF28EA
:1009000004D94FF4F97143A002F03CF9A06990B109
:10091000012810D002280ED003280CD004280AD0B9
:10092000052808D0062806D0072804D040F2F31185
:1009300038A002F027F9E06938B1B0F5002F04D0F3
:100940004FF4FA7133A002F01DF9206A38B1B0F506
:10095000003F04D040F2F5112EA002F013F994F8F4
:100960004100002510B106E0012070BD84F8405020
:10097000204600F06DF8242084F8410020680168CA
:1009800021F0010101606068216820F07060086159
:100990002068816821F400418160E0680128A06836
:1009A00007D040F4044021688860E068022803D042
:1009B00006E040F40040F6E721684FF4006048602C
:1009C00020684168214A114341602068C16821F4D0
:1009D0000041C160D4E904010843A16940EA012053
:1009E0002168C860D4E907010843216808602068CD
:1009F000016841F0010101606564202084F8410034
:100A0000256384F84250002070BD0000005400406F
:100A1000005C00402E2E2F447269766572732F534E
:100A2000544D33324C3478785F48414C5F4472699E
:100A30007665722F5372632F73746D33326C347812
:100A4000785F68616C5F6932632E6300008000022A
:100A500010B586B0044614216846FFF7EEFB134933
:100A60002068884220D1124CE06C40F00100E06424
:100A7000E06C694600F0010005904FF4C060009002
:100A80001220019001200290032003900420049082
:100A90004FF09040FFF798FCA06D40F40010A06567
:100AA000A06D00F40010059006B010BD0054004089
:100AB0000010024002480168491C016070470000B4
:100AC0000400002010B50024032000F0B9F8002035
:100AD00000F008F808B1012401E000F01BF82046FE
:100AE00010BD000070B5054609484FF47A71002426
:100AF0000068B0FBF1F001F057F808B1012404E000
:100B000000222946501E00F04BF8204670BD000020
:100B100000000020094808B5016E41F0010101669E
:100B2000016E01F001010091816D41F080518165FC
:100B3000806D00F08050009008BD00000010024061
:100B400010B5040003D5E32106A002F01BF804F061
:100B50001F01012088406109890001F1E021C1F8ED
:100B6000000110BD2E2E2F447269766572732F53CB
:100B7000544D33324C3478785F48414C5F4472694D
:100B80007665722F5372632F73746D33326C3478C1
:100B9000785F68616C5F636F727465782E630000C4
:100BA00070B515460C460646102A03D3CF2114A073
:100BB00001F0E8FF102C03D3D02111A001F0E2FFD7
:100BC0001E480068C0F30223C3F107022046042A2E
:100BD00000D90422191D072901D2002300E0DB1EE1
:100BE000012404FA02F1491E014099409C40641E10
:100BF0002C4021433046BDE8704001F053BA00005C
:100C00002E2E2F447269766572732F53544D3332F2
:100C10004C3478785F48414C5F4472697665722F36
:100C20005372632F73746D33326C3478785F6861FC
:100C30006C5F636F727465782E6300000CED00E0EA
:100C400010B5044607280BD0062C09D0052C07D078
:100C5000042C05D0032C03D0B72108A001F092FF8B
:100C6000154904F0070208684FF6FF03184040EAF0
:100C70000220124A1043086010BD00002E2E2F449F
:100C80007269766572732F53544D33324C347878D1
:100C90005F48414C5F4472697665722F5372632FCF
:100CA00073746D33326C3478785F68616C5F636F36
:100CB000727465782E6300000CED00E00000FA0508
:100CC00010B51B4CB0F5007F13D0B0F5806F03D08A
:100CD000B82118A001F056FF2068C0F34120022877
:100CE00005D0206820F4C06040F4806020600020BF
:100CF00010BD2068C0F341200128F8D0206820F4FE
:100D0000C06040F4007020601948322100684843F8
:100D10001849B0FBF1F0401C00E0401E6169490534
:100D200001D50028F9D160694005E0D5032010BD48
:100D3000007000402E2E2F447269766572732F5317
:100D4000544D33324C3478785F48414C5F4472697B
:100D50007665722F5372632F73746D33326C3478EF
:100D6000785F68616C5F7077725F65782E630000F2
:100D70000000002040420F000248006800F4C060FC
:100D800070470000007000402DE9F84F044600272E
:100D900000683E46C1074FF080694FF0006AFE4D83
:100DA0001BD1810719D4810617D4410615D4C1057A
:100DB00013D4810511D441050FD4010510D4810449
:100DC00030D441042ED401042CD481032DD440030B
:100DD0007ED4DB21F1A001F0D5FE2088000521D5CD
:100DE000E06B4FF400084FF4400B38B1404505D09C
:100DF000584503D0E321E9A001F0C4FEE06B50B1F7
:100E0000404503D0584538D001270AE0E86840F44F
:100E10008030E86031E00021201D01F055F9070025
:100E20002BD03E462068800347D5206D4FF0000848
:100E300068B1B0F5807F0AD0B0F5007F07D0B0F57B
:100E4000407F04D04FF4AB71D4A001F09BFEA86D9D
:100E5000C00009D4A86D40F08050A865A86D4FF07F
:100E6000010800F080500090DB48016841F4807177
:100E70000160FFF751FC834610E0D5F88800E16B74
:100E800020F440000843C5F88800CBE7FFF744FC96
:100E9000A0EB0B00022801D9032705E0CE4800682B
:100EA000C005F3D5002F7CD04FEA0706B8F1000F3C
:100EB00003D0A86D20F08050A8652078C00716D018
:100EC000206A60B101280AD0032808D0022800E077
:100ED0000CE104D040F2AB11B0A001F053FED5F804
:100EE0008800216A20F003000843C5F888002078B4
:100EF000800714D5606A50B1042808D00C2806D0A9
:100F0000082804D040F2B511A4A001F03BFED5F8AA
:100F10008800616A20F00C000843C5F8880020783A
:100F2000800617D5A06A68B1B0F5806F0AD0B0F519
:100F3000406F07D0B0F5006F04D040F2E91197A0E0
:100F400001F020FED5F88800A16A20F44060084333
:100F5000C5F888002088800517D5606B68B1B0F5AA
:100F6000802F0AD0B0F5002F07D0B0F5402F04D065
:100F70004FF4F97189A001F005FED5F88800616B86
:100F800020F440200843C5F888002088400519D582
:100F9000A06B78B1B0F5801F0CD0B0F5001F09D060
:100FA00000E060E0B0F5401F04D040F2F9117BA0F2
:100FB00001F0E8FDD5F88800A16B20F4401008434B
:100FC000C5F888002078400614D5E06A50B1B0F525
:100FD000805F07D0B0F5005F04D040F201216FA020
:100FE00001F0D0FDD5F88800E16A20F440500843B4
:100FF000C5F888002088C00514D5206B50B1B0F525
:10100000803F07D0B0F5003F04D040F2192163A023
:1010100001F0B8FDD5F88800216B20F4403008437A
:10102000C5F88800208880045DD5206C58B14845FB
:1010300009D0504507D0B0F1406F04D040F23221C2
:1010400056A001F09FFDD5F88800216C20F040608B
:101050000843C5F88800206C50453CD1E86840F44E
:101060008010E8603FE0D5F8900010F4407014D094
:10107000216D814211D0D5F89000D5F8901020F460
:10108000407041F48031C5F89010D5F8901021F4EB
:101090008031C5F89010C5F89000C00712D0FFF756
:1010A0003BFB834641F2883708E000BFFFF734FB83
:1010B000A0EB0B00B84201D90326F7E6D5F8900063
:1010C0008007F3D5D5F89000216D20F440700843D7
:1010D000C5F89000EAE6484505D10121201D00F041
:1010E000F3FF00B106462068400325D5606C58B177
:1010F000484509D0504507D0B0F1406F04D04FF4B7
:101100001E7126A001F03EFDD5F88800616C20F02C
:1011100040600843C5F88800606C504504D1E86819
:1011200040F48010E86007E0484505D10121201D0A
:1011300000F0CAFF00B10646208840041ED5A06C0E
:101140004FF0805748B1B84207D0B0F1405F04D0AB
:101150004FF4267111A001F015FDD5F88800A16C9F
:1011600020F040500843C5F88800A06CB84205D173
:101170000221201D00F0A8FF00B1064620880004CF
:1011800033D5E06C38B1B0F1804F04D04FF43171F9
:1011900002A001F0F7FC21E0001002402E2E2F44A7
:1011A0007269766572732F53544D33324C347878AC
:1011B0005F48414C5F4472697665722F5372632FAA
:1011C00073746D33326C3478785F68616C5F72630E
:1011D000635F65782E6300000070004055F8880F4B
:1011E000E16C20F0804008432860304600F000B8F1
:1011F00018BCBDE8E08F00002DE9F0470E46050061
:101200007ED02868401E0E2804D940F225416FA0E8
:1012100001F0B8FC66B1012E0AD0022E08D0032ED0
:1012200006D0042E04D040F2264168A001F0AAFCAA
:10123000744F386800F00700B04209D2386820F0D7
:10124000070030433860386800F00700B04270D1C2
:1012500028786D4CC0073BD0686830B301280ED0A9
:1012600002281FD003281AD040F23D4157A001F0B8
:1012700089FC6868032812D0022813D0A8B120681E
:101280004005002855DAA068696820F0030008438B
:10129000A060FFF741FA804641F2883911E02068EA
:1012A0008001EEE720688003EBE720688007E8E72D
:1012B000FFF732FAA0EB0801494502D90320BDE847
:1012C000F087A068696800F00C00B0EB810FEFD1E7
:1012D000287880071ED5A868B0B1802814D090283F
:1012E00012D0A02810D0B0280ED0C0280CD0D02802
:1012F0000AD0E02808D0F02806D040F2994100E05A
:1013000017E032A001F03EFCA068A96820F0F000D0
:101310000843A060386800F00700B0420BD9386875
:1013200020F0070030433860386800F00700B04212
:1013300001D00120C3E728784FF4806640074FF4BE
:10134000A0674FF4C0684FF4E06914D5E86860B155
:10135000B0420AD0B84208D0404506D0484504D033
:101360004FF4976119A001F00DFCA068E96820F422
:10137000E0600843A0602878000715D5286960B1AF
:10138000B0420AD0B84208D0404506D0484504D003
:1013900040F2BF410DA001F0F5FBA068296920F4DF
:1013A000605040EAC100A06000F058F8A168174AF8
:1013B000C1F30311515C01F01F01C84014490860DA
:1013C000BDE8F0470020FFF78DBB00002E2E2F4414
:1013D0007269766572732F53544D33324C3478787A
:1013E0005F48414C5F4472697665722F5372632F78
:1013F00073746D33326C3478785F68616C5F7263DC
:10140000632E63000020024000100240082C0008F8
:10141000000000200548064900688968054AC1F3B4
:101420000221515C01F01F01C840704700000020FC
:1014300000100240482C00080548064900688968E9
:10144000054AC1F3C221515C01F01F01C840704739
:101450000000002000100240482C000870B525490B
:10146000002318468A68CC6812F00C0204F00306C8
:10147000214C4FEA640509D00C2A05D0042A26D055
:10148000082A00D1284670BD012E10D10B681B0719
:1014900004D4D1F89430C3F3032302E00B68C3F300
:1014A0000313164E56F823307AB10C2AEBD1C868D4
:1014B00000F00302C868C0F30210401C022A08D0E2
:1014C000032A09D0B3FBF0F008E0184670BD2046AF
:1014D00070BDB4FBF0F001E0B5FBF0F0CA68C9687C
:1014E000C2F306225043C1F34161491C4900B0FBDD
:1014F000F1F070BD001002400024F400182C000828
:101500002DE9F84304007DD0206880B1C1070ED1D9
:1015100081070CD481060AD4C10608D4010706D479
:10152000400704D440F2AD11F1A001F02BFBFE4DB9
:10153000A86800F00C06E86800F003072078C006F1
:101540007ED5A06930B1012804D04FF4DB71E8A04A
:1015500001F018FBE069FF2804D940F2B711E4A0BC
:1015600001F010FB206AD0B1102818D0202816D026
:10157000302814D0402812D0502810D060280ED027
:1015800070280CD080280AD0902808D0A02806D037
:10159000B02804D04FF4DC71D5A001F0F3FA76B195
:1015A0000C2E01D1012F0AD0A069002828687BD019
:1015B00040F001002860FFF7AFF880465EE0286841
:1015C000800702D5A06900289DD0216A28680007FD
:1015D00003D5286800F0F00004E0D5F89400F0226C
:1015E00002EA1010814218D9084600F075FE002862
:1015F00008D1286840F0080028602868216A20F097
:10160000F00000E0F9E0084328606868E16920F430
:101610007F4040EA0120686017E0286840F0080039
:1016200028602868216A20F0F00008432860686874
:10163000E16920F47F4040EA01206860206A00E010
:1016400043E000F049FE0028D2D1FFF707FFA96868
:10165000B64AC1F30311515C01F01F01C840B449FF
:1016600008600020FFF73EFA002873D12DE000BF8C
:10167000FFF752F8A0EB080002286CD82868800712
:10168000F6D5286840F0080028602868216A20F014
:10169000F000084328606868E16920F47F4040EA70
:1016A0000120686011E0FFE720F001002860FFF7EB
:1016B00033F8804606E000BFFFF72EF8A0EB0800E5
:1016C0000228DAD828688007F6D42078C00750D0DE
:1016D00060684FF480384FF4A02940B1404506D0EF
:1016E000484504D04FF4087181A001F04BFA082E50
:1016F0000AD00C2E01D1032F06D0606840450AD1D4
:10170000286840F4803013E02868800331D5606891
:10171000002872D02DE04845286803D140F480208D
:101720002860EDE720F480302860286820F48020CD
:101730002860606880B1FEF7EFFF804606E000BFDA
:10174000FEF7EAFFA0EB0800642896D8286880031B
:10175000F6D50EE01AE218E2FEF7DEFF804605E05D
:10176000FEF7DAFFA0EB0800642886D8286880031B
:10177000F6D42078800749D5E06838B1B0F5807F8D
:1017800004D040F253215AA001F0FCF920691F282F
:1017900004D94FF4157156A001F0F4F9042E0ED0BF
:1017A0000C2E01D1022F0AD0E068002828681DD035
:1017B00040F480702860FEF7AFFF07460BE0286812
:1017C00040050BD5E0680028A3D007E0FEF7A4FF92
:1017D000C01B0228B9D828684005F7D56868217C65
:1017E00020F0F85040EA016068600FE020F480705B
:1017F0002860FEF791FF074605E088E1FEF78CFFC1
:10180000C01B0228A1D828684005F7D4207800071B
:1018100031D56069E0B1012806D04FF4257134A0BC
:1018200001F0B0F9606998B1D5F8940040F001007A
:10183000C5F89400FEF770FF074604E0FEF76CFF62
:10184000C01B022891D8D5F894008007F6D512E085
:10185000D5F8940020F00100C5F89400FEF75CFF75
:10186000074604E0FEF758FFC01B0228B2D8D5F89F
:1018700094008007F6D42078400772D5A06800272E
:1018800040B1012806D0052804D040F2E72118A075
:1018900001F078F9A86DC00008D4A86D40F0805020
:1018A000A865A86D012700F08050009021480168CC
:1018B000C90513D40168814641F480710160FEF7C7
:1018C0002BFF804606E000BFFEF726FFA0EB0800D6
:1018D000022897D8D9F80000C005F5D5A0680128DE
:1018E0003AD00528D5F890003CD020F0010023E044
:1018F0002E2E2F447269766572732F53544D3332F6
:101900004C3478785F48414C5F4472697665722F39
:101910005372632F73746D33326C3478785F6861FF
:101920006C5F7263632E630000100240082C000895
:101930000000002000700040C5F89000D5F890002D
:1019400020F00400C5F89000A06841F28839D0B1B9
:10195000FEF7E2FE804611E0D5F8900040F001006D
:10196000F0E724E040F00400C5F89000F4E700BF81
:10197000FEF7D2FEA0EB08014945AAD8D5F89000A1
:101980008007F5D50EE0FEF7C7FE804606E000BFF3
:10199000FEF7C2FEA0EB080149459AD8D5F89000A1
:1019A0008007F5D41FB1A86D20F08050A86520787D
:1019B000800632D5606AE8B1012807D04FF4537130
:1019C000AFF2D40001F0DEF8606A98B1D5F8980063
:1019D00040F00100C5F89800FEF79EFE074604E0BF
:1019E000FEF79AFEC01B0228C7D8D5F898008007DA
:1019F000F6D512E0D5F8980020F00100C5F898005F
:101A0000FEF78AFE074604E0FEF786FEC01B0228AA
:101A1000B3D8D5F898008007F6D4A06A002875D00E
:101A200001280AD0022808D040F27531AFF24010E8
:101A300001F0A8F8A06A0028F1D00C2E67D0022887
:101A400012D0286820F0807028602868000103D434
:101A5000E86820F00300E860E86851490840E86061
:101A6000FEF75AFE044693E0E06A58B1012809D017
:101A7000022807D0032805D040F27F31AFF2901042
:101A800001F080F8206B401E072805D94FF46071E3
:101A9000AFF2A41001F076F8606B08384E2805D933
:101AA00040F28131AFF2B81001F06CF8A06B801EEB
:101AB0001D2805D940F28331AFF2CC1001F062F855
:101AC000E06B02280BD0042809D0062807D008288C
:101AD00005D040F28531AFF2E81001F053F8206CE8
:101AE00002280BD0042809D0062807D0082805D0E2
:101AF00040F28631AFF2082001F044F8286820F067
:101B000080702860FEF708FE064606E043E044E0E9
:101B1000FEF702FE801B022837D828688001F7D420
:101B2000206B54F82C1F000110380843218A1D4AED
:101B3000490802EB4151A26841EA02210843217D94
:101B40004FF07E42490802EB41610843217B40EAA5
:101B5000C160E860286840F080702860E86840F064
:101B60008070E860FEF7D8FD044604E0FEF7D4FD7F
:101B7000001B022809D828688001F7D50BE000BFB8
:101B8000FEF7CAFD001B022802D90320BDE8F88336
:101B900028688001F4D40020F8E70120F6E700006F
:101BA000FFFFEEFE0000E0FF10B5401EB0F1807FA9
:101BB00001D3012010BD4FF0E02460610F216017B8
:101BC00000F070FA0020A06107202061002010BD05
:101BD000704770472DE9F04102680446D0691168EA
:101BE000936810F00F0F4FF000055BD003F0010673
:101BF00001F49077374369D0C70707D0CF0505D5E3
:101C000001271762626F42F001026267820708D5FE
:101C1000DA0706D0276802223A62626F42F00402B5
:101C20006267420708D5DA0706D0236804221A62E1
:101C3000626F42F00202626702070AD501F02002D9
:101C4000324306D0236808221A62626F42F008020B
:101C50006267626F002A32D0800605D5880603D5F8
:101C6000216E09B120468847606F000703D42068C1
:101C70008068400625D5204600F006FD2068816872
:101C8000490619D5816821F040018160E06E98B164
:101C900020498163E06EFEF761FB00280FD0E06E03
:101CA000816B06E0860611D58E060FD5216E1EE0EB
:101CB0002046BDE8F04108472046FFF78AFFBDE80F
:101CC000F0812046FFF785FF6567F8E7C60209D572
:101CD0005B0207D54FF4801010622046BDE8F0414A
:101CE000FFF776BF030605D50B0603D5616E002905
:101CF000DED1E4E74006E2D54806E0D5116820468B
:101D000021F040011160202184F87110656600F017
:101D10007BF9D4E77526000810B504000FD0A06940
:101D200025490028254A264B20680AD0884213D02E
:101D3000904211D098420FD04FF4A97109E00120D0
:101D400010BD884208D0904206D0984204D040F29C
:101D500057111CA000F016FF94F8710028B900205C
:101D600084F87000204600F04BF8242084F87100BD
:101D70002068016821F001010160204600F0F0FCBC
:101D80000128DDD0606A10B1204600F049FB2068D0
:101D9000416821F4904141602068816821F02A0166
:101DA00081602068016841F0010101602046BDE8C2
:101DB000104000F031BC00000038014000440040F9
:101DC000008000402E2E2F447269766572732F5367
:101DD000544D33324C3478785F48414C5F447269DB
:101DE0007665722F5372632F73746D33326C34784F
:101DF000785F68616C5F756172742E63000000002B
:101E000010B586B0044614216846FEF716FA164946
:101E10002068884226D11548016E41F48041016650
:101E2000016E01F480410591C16C41F00201C16471
:101E3000C06C694600F002000590C02000900220AE
:101E4000019000200290032003900720049008488E
:101E5000FEF7BAFA002211462520FEF7A1FE252042
:101E6000FEF76EFE06B010BD0038014000100240C3
:101E70000004004830B590F87230202B4AD1B1B13F
:101E8000AAB190F87030012B44D0012380F8703053
:101E90004165A0F85820A0F85A20002202661D03D0
:101EA0008168FF23A94207D1016911B10CE001202B
:101EB00030BD40F2FF110DE07F2419B1B1F1805F18
:101EC00005D009E0016901BBA0F85C3004E00169BC
:101ED000D9B13F21A0F85C104267222180F872102E
:101EE00001688B6843F001038B608168A94201D1CE
:101EF000016969B10849016680F8702000680168CD
:101F000041F490710160002030BDA0F85C40E3E72F
:101F10000249F0E7022030BD05270008A926000885
:101F200010B500680849884209D14FF6FF730822AE
:101F30000649074800F010F806A000F0FBFD034931
:101F40000120491E087010BD003801400900002022
:101F50006C0000200A0D00002DE9F843044690F8BB
:101F600071001F4616460D4620284BD1C5B1BEB1A3
:101F700094F87000012845D0012084F870004FF0DB
:101F80000008C4F87480212084F87100FEF7C4FBB7
:101F9000A4F850608146A4F852604FF4805615E0D2
:101FA0000120BDE8F8838021204600F07FFDD8B9EC
:101FB000A068B04201D12069C0B115F8010B2168B9
:101FC0000885B4F85200401EA4F85200B4F852003C
:101FD0004B464FF0000200970028E4D14FF040013B
:101FE000204600F063FD30B10320DAE735F8020B3C
:101FF000C0F30800E3E7202084F8710084F87080C3
:102000000020CEE70220CCE77047FEE7104810B56D
:102010000E4901600F49416000210122C0E902120E
:10202000016141618161C1610162FEF73BFC50B910
:1020300000210748FEF776FB28B900210448FEF787
:10204000D3FB002801D0FEF77DF910BD00540040FD
:1020500020000020EC9C9010104810B50E49016043
:102060004FF4E1314160002181600C22C160C0E980
:1020700004128161C16101624162FFF74DFE08B146
:10208000FEF760F9002211462520FEF789FDBDE824
:1020900010402520FEF754BD003801406C000020A0
:1020A000FEE770470907090E002806DA00F00F0066
:1020B00000F1E02080F8141D704700F1E02080F866
:1020C00000147047704700002DE9F0410446006895
:1020D0008846002650B1012808D0022806D00328DF
:1020E00004D040F6443167A000F04CFD6068401E0B
:1020F000072804D940F6453162A000F043FDA068EE
:1021000008384E2804D940F646315EA000F03AFD6A
:10211000A069C10303D4C10201D4C10102D5684939
:10212000084204D040F6473156A000F02BFD654D23
:10213000E86880070ED0E86800F00301206881425B
:1021400017D1B0B1E8686168C0F30210401C884242
:102150000FD121E02068012804D0022805D00328EF
:1021600007D108E02968890701E0296849050029A5
:1021700007DB012682E02968890302D42968490324
:10218000F5E7E96862686FF00F0321F0730103EB74
:10219000021211430143E960286820F08060286042
:1021A000FEF7BAFA074604E0FEF7B6FAC01B0228AB
:1021B0005BD828680001F7D4B8F1000F26D0B8F139
:1021C000010F34D0606902280AD0042808D00628FC
:1021D00006D0082804D04FF43D612AA000F0D2FCBC
:1021E000207D4FF07E41400801EB4060A16840EA4D
:1021F00001202969344A114008432861286840F0C9
:1022000080602860FEF788FA074630E0E068801EAC
:102210001D2804D940F69A311AA000F0B3FCA0683A
:10222000217B000240EAC1602969284AE3E720696E
:1022300002280AD0042808D0062806D0082804D08E
:1022400040F6BE310FA000F09DFC208A20494008D6
:1022500001EB4050A16840EA012029691D4ACAE704
:10226000FEF75AFAC01B022801D9032606E02868A7
:102270000001F5D52869A169084328613046BDE809
:10228000F08100002E2E2F447269766572732F53F1
:10229000544D33324C3478785F48414C5F44726916
:1022A0007665722F5372632F73746D33326C34788A
:1022B000785F68616C5F7263635F65782E630000AE
:1022C000FFFFEEFE00100240FF80FFF9FF80FF07D6
:1022D0000000E0FFFF809FFFF8B51C4D064600247C
:1022E000A86DC00002D5FEF747FD0DE0A86D40F0D7
:1022F0008050A865A86D00F080500090FEF73CFD6E
:10230000A96D21F08051A965B0F5007F04D0802E21
:1023100007D94FF003040AE0802E08D9A02E01D877
:1023200004E001D1022402E0702E00D1012408480B
:10233000016821F0070121430160006800F00700F7
:10234000A04201D00120F8BD0020F8BD00100240DD
:10235000002002407047FEF7ADBB10B5ACB0442181
:102360006846FDF76AFF142126A8FDF766FF542191
:1023700011A8FDF762FF0220C10103911021009016
:1023800004910A900121CDE90B010A210D91072149
:10239000CDE90E1010906846FFF7B2F8D0B90F20C3
:1023A000269003200024CDE927042994042126A89F
:1023B0002A94FEF721FF68B94120119019941C94CA
:1023C00011A8FEF7E1FC28B94FF40070FEF778FC85
:1023D000002801D0FDF7B6FF2CB010BD0D480168F4
:1023E00041F4700101600C48016841F00101016095
:1023F000002181600268094B1A4002608214C260A9
:10240000026822F48022026081610249C00380399F
:102410000860704788ED00E000100240FFFFF6EA18
:1024200070B50446406AFF2804D940F6144169A0FB
:1024300000F0A8FB94F82400C00710D0A06A38B1BF
:10244000B0F5003F04D040F6194162A000F09AFBBD
:1024500020684168A26A21F400311143416094F878
:102460002400800710D5E06A38B1B0F5803F04D071
:102470004FF4426157A000F085FB20684168E26A92
:1024800021F480311143416094F82400400710D5B5
:10249000206B38B1B0F5802F04D040F627414DA015
:1024A00000F070FB20684168226B21F48021114309
:1024B000416094F82400000710D5606B38B1B0F586
:1024C000004F04D040F62E4142A000F05BFB206894
:1024D0004168626B21F400411143416094F824008B
:1024E000C00610D5A06B38B1B0F5805F04D040F6BF
:1024F000354138A000F046FB20688168A26B21F4CA
:1025000080511143816094F82400800610D5E06B5F
:1025100038B1B0F5005F04D040F63C412DA000F08A
:1025200031FB20688168E26B21F400511143816026
:1025300094F82400400637D535492068884207D0F2
:102540003449884204D040F6434122A000F01AFBEF
:10255000206C4FF4801530B1A84204D040F64441BD
:102560001CA000F00FFB20684168226C21F4801150
:1025700011434160206CA84216D1606C68B1B0F57F
:10258000001F0AD0B0F5800F07D0B0F5C00F04D0FF
:1025900040F649410FA000F0F5FA20684168626CEE
:1025A00021F4C0011143416094F82400000610D5C5
:1025B000A06C38B1B0F5002F04D040F6514105A011
:1025C00000F0E0FA20684168A26C21F40021114378
:1025D000416070BD2E2E2F447269766572732F5341
:1025E000544D33324C3478785F48414C5F447269C3
:1025F0007665722F5372632F73746D33326C347837
:10260000785F68616C5F756172742E630000000012
:102610000038014000440040F8B5002604464667F3
:10262000FEF77AF80546206800686FF07E470007DD
:1026300008D52B4600224FF400112046009700F0E9
:1026400035FA60B92068006840070AD52B46002299
:102650004FF480012046009700F028FA08B10320CB
:10266000F8BD202084F8710084F8720084F870604E
:102670000020F8BD10B5806A0021A0F85A10A0F81B
:102680005210FFF7A6FA10BD01680A6822F4907292
:102690000A6001688A6822F001028A60202180F8BD
:1026A000721000210166704710B5B0F85C2090F8F8
:1026B00072300168222B04D0088B40F00800088398
:1026C00010BD898C436D11401980416D891C416595
:1026D000B0F85A10491E0904090CA0F85A10EFD19D
:1026E00001680A6822F490720A6001688A6822F020
:1026F00001028A60202180F8721000210166FFF734
:102700000FFC10BD10B5B0F85C2090F87230016875
:10271000222B04D0088B40F00800088310BD898C60
:102720001140426D531C43651170B0F85A10491E98
:102730000904090CA0F85A10F0D101680A6822F4C3
:1027400090720A6001688A6822F001028A60202182
:1027500080F8721000210166FFF7E2FB10BD000057
:102760002DE9F04704464068B74910250027884204
:1027700004D340F6EC21B5A000F004FAA0684FF4B1
:102780008056B0F1805F07D030B1B04204D040F63F
:10279000ED21AEA000F0F6F9DFF8EC8220684FF4EE
:1027A00000514045E0684FF4006A06D100281AD075
:1027B000884218D04FF42F6112E0B0420AD048B1DD
:1027C000B0F5405F06D0884204D040F6F4219FA0C7
:1027D00000F0D8F9206A30B1504504D040F6F52118
:1027E0009AA000F0CFF920694FF4806648B1B0425A
:1027F00007D0B0F5C06F04D040F6F82193A000F0E8
:10280000C1F9606930F00C0100D120B940F6F9211E
:102810008EA000F0B7F9A06968B1B0F5807F0AD04A
:10282000B0F5007F07D0B0F5407F04D040F6FA2124
:1028300086A000F0A7F9E0694FF4004930B148459F
:1028400004D040F6FB2181A000F09CF92169A0682A
:10285000E2690843616911432268084311688B4BA0
:1028600019400143116020684168E26821F4405139
:10287000114341602168A069414501D0226A10439B
:102880008A6822F4306202438A60814A2168814862
:1028900091420DD1D0F8880010F0030006D0012835
:1028A00028D0022824D0032827D125E0012524E0C0
:1028B000794A91420BD1D0F8880010F00C0015D065
:1028C000042817D0082813D00C2816D114E041454D
:1028D00013D1D0F8880010F4406007D0B04209D07E
:1028E000504505D0B0F5406F07D105E0002504E064
:1028F000022502E0042500E008256848002641453D
:102900003FD135B1022D0AD0042D05D0082D11D1AB
:102910000EE0FEF77FFD01E0FEF7A0FD80B36268E8
:1029200002EB4201814205D8B0EB023F02D803E03E
:102930004846F4E7012772E0DFF864815DB1022DBB
:102940000CD0042D13D0082DF4D1500829054018BF
:1029500046F1000105E0FEF75DFD0AE0500851492F
:10296000F5E70023FDF72EFCA0F5407153E0FEF7DC
:1029700075FD6268010E0302500818187141F0E7F6
:102980004DE0E2694FF6EF784A452DD1092DD1D2BD
:10299000DFE805F006092005230505052600C9E73F
:1029A000FEF738FD01E0FEF747FD4100D4F80400D2
:1029B00001EB5001B1FBF0F080B2A0F110014145F4
:1029C000B8D84FF6F0710140C0F3420001432068CF
:1029D000C16024E034496068EAE7FEF73FFDE4E7C0
:1029E0004FF480316068E3E7092DA3D2DFE805F0FA
:1029F00006091C052205050525009BE7FEF70AFDD3
:102A000001E0FEF719FD0146606801EB500117E097
:102A100080B2A0F1100141458CD82168C8602666BB
:102A200038466666BDE8F087616800EB5100B0FB90
:102A3000F1F0EDE7FEF712FDE5E7606809EB500104
:102A4000B1FBF0F0E4E70000819698002E2E2F44B1
:102A50007269766572732F53544D33324C347878E3
:102A60005F48414C5F4472697665722F5372632FE1
:102A700073746D33326C3478785F68616C5F756144
:102A800072742E630000000000800040F369FFEFC5
:102A90000038014000100240004400400024F400CF
:102AA000FFFC0F00000024F40048E8012DE9F0418C
:102AB000984617460E460446069D1DE0681C1BD02E
:102AC0002DB1FDF729FEA0EB0800A84214D920681B
:102AD000016821F4D07101602068816821F0010152
:102AE0008160202084F8710084F87200002084F84E
:102AF00070000320BDE8F0812068C06936EA00005C
:102B000004D00020B842D9D00020F3E70120F9E733
:102B100010B50548FFF75EF8BDE8104008220349EC
:102B20000148FFF7A7B900006C0000200900002051
:102B3000FEE70000014A024900F013B8892B0008A3
:102B40001C00002002E008C8121F08C1002AFAD1A8
:102B500070477047002001E001C1121F002AFBD11D
:102B600070472DE9F04116460F460446002503E064
:102B70003946B047641C6D1C20780028F8D12846DF
:102B8000BDE8F0817047000013B54FF6FF730122D6
:102B900069460248FFF7E0F900981CBD6C00002070
:102BA00008B5FDF78FFF0020FDF784FBFFF7D5FB8D
:102BB0001248C16C41F00101C164C16C01F0010116
:102BC0000091C16C41F00201C164C06C00F00200D0
:102BD0000090FFF71BFAFFF73FFA094801680A68FF
:102BE00042F020020A600068016841F04001016083
:102BF000082204490248FFF73DF9FEE700100240B1
:102C00006C0000200900002000000000000000000F
:102C10000102030406070809A0860100400D030015
:102C2000801A060000350C0040420F0080841E0010
:102C300000093D0000127A000024F40000366E0105
:102C40000048E801006CDC020000000001020304FF
:102C500008000000742C0008000000202000000084
:102C6000442B0008942C000820000020C804000019
:102C7000542B000800093D00000000000000000087
:102C8000000000000000000000040048E80300000D
:042C90000000000040
:040000050800018D61
:00000001FF
